:100000000080001025020000AD020000AD020000DB
:10001000AD020000AD020000AD02000000000000D3
:100020000000000000000000000000006D1900004A
:10003000AD02000000000000191B00005D1B000065
:10004000AD020000AD020000AD020000AD020000F4
:10005000AD020000AD020000C5200000AD020000AE
:10006000AD020000AD020000AD020000AD020000D4
:10007000AD020000AD020000AD020000AD020000C4
:10008000AD020000AD020000AD020000AD020000B4
:10009000AD020000FD000000AD020000AD02000056
:1000A000AD020000AD020000AD020000AD02000094
:1000B000AD020000AD020000AD020000AD02000084
:0C00C000AD020000AD020000AD02000027
:1000CC0080B483B000AF0346FB71084997F9073041
:1000DC005B09FA7902F01F02012000FA02F241F8E2
:1000EC0023200C37BD465DF8047B704700E100E02F
:1000FC0080B500AF02200B21002201F0C7FF0346A0
:10010C00012B03D102200B2101F0AAFF02200B21AD
:10011C00012201F0BBFF0346012B03D102200B216E
:10012C0001F09EFF02200C21002201F0AFFF0346DC
:10013C00012B03D102200C2101F092FF02200C2193
:10014C00012201F0A3FF0346012B03D102200C2155
:10015C0001F086FF80BD00BF80B500AF01F01EFF2F
:10016C0001F016FF01F05CFE02200B21002201F0D1
:10017C0047FF02200C21002201F042FF02200B213C
:10018C00002201F055FF02200B21012201F050FF4B
:10019C0002200C21002201F04BFF02200C21012235
:1001AC0001F046FF1520FFF78BFF01F0ABFE80BD81
:1001BC0080B584B004AFFFF7CFFF01230093114B40
:1001CC00019300230293002303930F480F494FF42C
:1001DC008072002300F054FF01230093094B01931C
:1001EC00002302930023039309480A494FF48072B9
:1001FC00002300F045FF01F039F801231846BD46F5
:10020C0080BD00BFA4210010851D000060220000ED
:10021C00D51D00006C220000684620F007018D46B9
:10022C0081B583B000AF174B7B60174B3B6007E089
:10023C003B681A1D3A607A68111D796012681A6061
:10024C003B68124A9342F3D3114B3B6004E03B688A
:10025C001A1D3A6000221A603B680E4A9342F6D38C
:10026C000D4B3B6004E03B681A1D3A6000221A609B
:10027C003B680A4A9342F6D300F0C8F8FFF798FFA0
:10028C00FEE700BF9822000000C0072010C0072026
:10029C0000000010A821001010C0072010C007207B
:1002AC0080B400AFFEE700BF80B400AF514BD3F871
:1002BC0088301B0E03F00303032B63D14D4BD3F893
:1002CC000C3103F00303032B00F2908001A252F8CF
:1002DC0023F000BFF1020000270300005D030000C3
:1002EC00F1020000434BD3F88830C3F30E03013303
:1002FC00414A02FB03F23F4BD3F888301B0CDBB2B4
:10030C000133B2FBF3F23B4BD3F80431DBB20133D4
:10031C00B2FBF3F3394A136033E0364BD3F8883031
:10032C00C3F30E030133364A02FB03F2314BD3F80D
:10033C0088301B0CDBB20133B2FBF3F22D4BD3F83C
:10034C000431DBB20133B2FBF3F32C4A136018E037
:10035C00284BD3F88830C3F30E0301331A04254B12
:10036C00D3F888301B0CDBB20133B2FBF3F2214B18
:10037C00D3F80431DBB20133B2FBF3F31F4A136041
:10038C0000BF33E01B4BD3F80C3103F00303032BFA
:10039C002CD801A252F823F0B5030000CB030000C7
:1003AC00E1030000B5030000124BD3F80431DBB2BB
:1003BC000133144AB2FBF3F3104A136016E00D4BF1
:1003CC00D3F80431DBB201330F4AB2FBF3F30B4A1F
:1003DC0013600BE0074BD3F80431DBB201334FF45D
:1003EC000042B2FBF3F3054A136000BFBD465DF853
:1003FC00047B704700C00F4000127A0000C0072039
:10040C0000366E0100093D00001BB70080B400AF40
:10041C004E4B2022C3F8A0214C4BD3F8A03103F053
:10042C002003002B07D000BF484BD3F8A03103F0BA
:10043C004003002BF8D0454B0322C3F80421434B57
:10044C000022C3F8A821414B0022C3F8AC213F4B3A
:10045C000122C3F80C213D4B3D4AC3F884203B4B91
:10046C00AA22C3F88C20394B5522C3F88C20374B69
:10047C000122C3F88020354BAA22C3F88C20334BC1
:10048C005522C3F88C2000BF304BD3F8883003F0D2
:10049C008063002BF8D02D4B0322C3F880202B4B0C
:1004AC00AA22C3F88C20294B5522C3F88C2000BFFC
:1004BC00264BD3F8883003F04073002BF8D0234B35
:1004CC002322C3F8A420214BAA22C3F8AC201F4B33
:1004DC005522C3F8AC201D4B0122C3F8A0201B4BA6
:1004EC00AA22C3F8AC20194B5522C3F8AC2000BF8C
:1004FC00164BD3F8A83003F48063002BF8D0134BC1
:10050C000322C3F8A020114BAA22C3F8AC200F4B36
:10051C005522C3F8AC2000BF0C4BD3F8A83003F421
:10052C004073002BF8D0094B0A4AC3F8C420074B80
:10053C000022C3F8C821054B43F23A021A60064B5D
:10054C0000229A60BD465DF8047B704700C00F40E6
:10055C0063000500DE87280400ED00E080B584B060
:10056C0000AF786039607B68174A934203D0174814
:10057C003E2100F005FB3B68154A934203D9134812
:10058C003F2100F0FDFA4FF48050012100F094F966
:10059C007B6800221A604FF40013FB60182000F0F7
:1005AC0059F9B860BA683B68B2FBF3F3013BBB6026
:1005BC00BB681B02FA681343FB607B68FA681A601D
:1005CC001037BD4680BD00BF0040034078220000BC
:1005DC00405DC60080B582B000AF78600B46FB7002
:1005EC007B68194A934203D018487B2100F0C8FA63
:1005FC00FB78002B18D0FB78012B15D0FB78022B45
:10060C0012D0FB78032B0FD0FB78042B0CD0FB788B
:10061C00052B09D0FB78062B06D0FB78072B03D0D3
:10062C000A487C2100F0ACFA7B681B6823F0E0627E
:10063C007B681A607B681A68FB781B061A437B6818
:10064C001A600837BD4680BD004003407822000088
:10065C0080B582B000AF78600B46FB701346BB7060
:10066C007B681F4A934203D01E48CB2100F088FAC6
:10067C00FB78002B1BD0FB78012B18D0FB78022BBE
:10068C0015D0FB78032B12D0FB78042B0FD0FB7802
:10069C00052B0CD0FB78062B09D0FB78072B06D04A
:1006AC00FB78082B03D00F48CC2100F069FA7B684B
:1006BC00DA68FB78012101FA03F3DB431A407B680B
:1006CC00DA60BB78002B08D07B68DA68FB780121F4
:1006DC0001FA03F31A437B68DA600837BD4680BD24
:1006EC00004003407822000080B582B000AF7860F3
:1006FC000B46FB701346BB707B68104A934203D0C9
:10070C000F48DE2100F03CFABB78012B09D17B6845
:10071C001A68FB78012101FA03F31A437B681A600B
:10072C0009E07B681A68FB78012101FA03F3DB43CB
:10073C001A407B681A600837BD4680BD00400340F4
:10074C007822000080B584B000AF78600B46FB7057
:10075C007B680C4A934203D00B48F22100F010FA4C
:10076C007B6803F11002FB789B0013441B68FB6051
:10077C00FB681B099BB2C3F30B039BB218461037E3
:10078C00BD4680BD004003407822000080B586B095
:10079C0000AFF8600B467A60FB72FB68184A934214
:1007AC0004D018484FF4837100F0EAF97B68002BF1
:1007BC0007D07B68012B04D012484FF4847100F0F1
:1007CC00DFF9FB6803F11002FB7A9B0013441B68F2
:1007DC007B617B68002B04D07B6903F000437B6159
:1007EC0003E07B6903F080437B617B69002B01D0C4
:1007FC00012300E0002318461837BD4680BD00BF1A
:10080C00004003407822000080B485B000AF7860CF
:10081C007B681F2B06D87B68FB600D4BD3F8A83187
:10082C00BB6006E07B68203BFB60094BD3F8AC3126
:10083C00BB60FB68BA6822FA03F303F00303BB60E6
:10084C00BB6818461437BD465DF8047B704700BF83
:10085C0000C00F4080B584B000AF7860154B1B68AA
:10086C00BB607868FFF7D0FFF860FB68032B17D8E4
:10087C0001A252F823F000BF950800009B0800006D
:10088C00A1080000A70800000423FB6008E0012376
:10089C00FB6005E00223FB6002E00823FB6000BF65
:1008AC00BA68FB68B2FBF3F3BB60BB681846103741
:1008BC00BD4680BD00C0072080B483B000AF786017
:1008CC000B46FB70FB78012B0AD10F480E4BD3F86B
:1008DC00C42079680D4B0B401343C0F8C4300DE0B5
:1008EC00FB78002B0AD10849074BD3F8C4207B684E
:1008FC00DB431A40054B1340C1F8C4300C37BD46DE
:10090C005DF8047B704700BF00C00F40DEF7EFEFCF
:10091C0080B485B000AF0346FB710023FB60FB790C
:10092C00042B1CD801A252F823F000BF4D09000083
:10093C0053090000590900005F0900006509000017
:10094C000B4BFB600CE00B4BFB6009E00A4BFB60B4
:10095C0006E00A4BFB6003E0094BFB6000E000BFC4
:10096C00FB6818461437BD465DF8047B704700BF22
:10097C0000C0092020C0092040C0092060C0092007
:10098C0080C0092080B584B000AF03463960FB718C
:10099C001346BB71FB791846FFF7BAFFF860FB688A
:1009AC00002B10D0BB79002B06D0FB681A683B6873
:1009BC001A43FB681A6006E0FB681A683B68DB4365
:1009CC001A40FB681A601037BD4680BD80B584B0F4
:1009DC0000AF03463960FB71FB791846FFF798FFAF
:1009EC00F860FB68002B02D0FB683A689A611037FC
:1009FC00BD4680BD80B584B000AF03463960FB7145
:100A0C00FB791846FFF784FFF860FB68002B02D0D7
:100A1C00FB683A68DA611037BD4680BD80B483B09C
:100A2C0000AF03463960FB711346BB71FB79002B99
:100A3C0009D1BB79002B06D11949194B1A693B68AE
:100A4C0013430B6127E0FB79022B09D1BB79002BF7
:100A5C0006D11349124B1A6B3B6813430B631AE014
:100A6C00FB79002B09D1BB79012B06D10C490C4B1E
:100A7C005A693B6813434B610DE0FB79022B09D19A
:100A8C00BB79012B06D10649054B5A6B3B681343C6
:100A9C004B6300E0FEE70C37BD465DF8047B704706
:100AAC008080024080B483B000AF03463960FB7194
:100ABC001346BB71FB79002B0CD1BB79002B09D1F0
:100ACC00204B5A683B6822FA03F3DBB203F00103B4
:100ADC00DBB230E0FB79022B0CD1BB79002B09D1B6
:100AEC00184B5A6A3B6822FA03F3DBB203F001039A
:100AFC00DBB220E0FB79002B0CD1BB79012B09D1A7
:100B0C00104B9A683B6822FA03F3DBB203F0010343
:100B1C00DBB210E0FB79022B0CD1BB79012B09D194
:100B2C00084B9A6A3B6822FA03F3DBB203F0010329
:100B3C00DBB200E0FEE718460C37BD465DF8047BDF
:100B4C00704700BF8080024080B483B000AF034682
:100B5C003960FB71FB79002B03D1084A3B68D360E9
:100B6C0007E0FB79022B03D1044A3B68D36200E017
:100B7C00FEE70C37BD465DF8047B70478080024071
:100B8C0080B483B000AF78603960FEE780B487B082
:100B9C0000AF0346FB710B46BB7113467B71BB79EF
:100BAC007B61FB795B003B61174BFB607B690F2B17
:100BBC0005D97B69103B7B613B6901333B613B6928
:100BCC009B00FA6813443A699200F9680A44116868
:100BDC007A695200104603228240D2430A401A60BE
:100BEC003B699B00FA6813443A699200F9680A441D
:100BFC0011687A797869400082400A431A601C3780
:100C0C00BD465DF8047B704700C0024080B487B0DD
:100C1C0000AF0346FB710B46BB7113467B71BB796E
:100C2C007B61FB795B003B61174BFB607B690F2B96
:100C3C0005D97B69103B7B613B6901333B613B69A7
:100C4C009B00FA6813443A699200F9680A441168E7
:100C5C007A695200104603228240D2430A401A603D
:100C6C003B699B00FA6813443A699200F9680A449C
:100C7C0011687A797869400082400A431A601C37FF
:100C8C00BD465DF8047B704740C0024080B485B01F
:100C9C0000AF0346FB710B46BB7113467B71154BC2
:100CAC00FB607B79012B0FD1FB799B00FA68134415
:100CBC00FA799200F9680A441168BA79012000FAAD
:100CCC0002F20A431A600FE0FB799B00FA681344A6
:100CDC00FA799200F9680A441168BA79012000FA8D
:100CEC0002F2D2430A401A601437BD465DF8047B09
:100CFC00704700BF68C0024080B582B000AF78601A
:100D0C007B6819787B685A787B689B780846114613
:100D1C001A46FFF73BFF7B6819787B685A787B682B
:100D2C00DB78084611461A46FFF770FF7B68197886
:100D3C007B685A787B681B79084611461A46FFF780
:100D4C00A5FF0837BD4680BD80B483B000AF786086
:100D5C007B680C4A934201D100230CE07B680A4A61
:100D6C00934201D1012306E07B68084A934201D1EA
:100D7C00022300E0032318460C37BD465DF8047BC4
:100D8C00704700BF00C000400000014000800940D7
:100D9C0080B588B000AF78607868FFF7D5FF034660
:100DAC00FB777B689B68BB61BB6903F00E037B61BF
:100DBC00FB7F012B1AD14E4B1B6801334C4A13603D
:100DCC007B69002B12D14B4B1B7EFB744A4B1B686F
:100DDC00002B05D0484B1B68FA7C1046984705E061
:100DEC00444A444B5B6823F0880353607B69062BB1
:100DFC0023D17B681B7DDBB2FB60FB6803F09E0399
:100E0C00FB60FB68002B18D0FB7F3C4A1B01134492
:100E1C0008335B68002B0AD0FB7F384A1B01134454
:100E2C0008335B68FA68D2B21046984705E07B68D5
:100E3C005B6823F004027B685A607B69042B02D048
:100E4C007B690C2B13D1FB7F2C4A1B0113445B6871
:100E5C00002B06D0FB7F294A1B0113445B68984783
:100E6C0005E07B685B6823F001027B685A607B6954
:100E7C00022B13D1FB7F214A1B0113441B68002B4F
:100E8C0006D0FB7F1D4A1B0113441B68984705E0E5
:100E9C007B685B6823F002027B685A60BB6903F4D1
:100EAC004073BB61BB69002B1ED07B681A6ABB699F
:100EBC0003F440731A437B681A62FB7F0F4A1B01D1
:100ECC00134408331B68002B08D0FB7F0B4A1B0113
:100EDC00134408331B68B869984705E07B685B6866
:100EEC0023F440727B685A602037BD4680BD00BF3A
:100EFC0044000010000001404000001000000010F1
:100F0C0080B500AF0148FFF743FF80BD00000140F2
:100F1C0080B400AFBD465DF8047B704780B483B0ED
:100F2C0000AF78607B6803F108027B685A607B68CD
:100F3C004FF0FF329A607B6803F108027B68DA603D
:100F4C007B6803F108027B681A617B6800221A60D7
:100F5C000C37BD465DF8047B704700BF80B483B08E
:100F6C0000AF78607B6800221A610C37BD465DF8D3
:100F7C00047B704780B485B000AF786039607B68C3
:100F8C005B68FB603B68FA685A60FB689A683B6870
:100F9C009A60FB689B683A685A60FB683A689A608A
:100FAC003B687A681A617B681B685A1C7B681A60FC
:100FBC001437BD465DF8047B704700BF80B485B024
:100FCC0000AF786039603B681B68BB60BB68B3F1ED
:100FDC00FF3F03D17B681B69FB600CE07B68083327
:100FEC00FB6002E0FB685B68FB60FB685B681A688F
:100FFC00BB689A42F6D9FB685A683B685A603B68F2
:10100C005B683A689A603B68FA689A60FB683A6871
:10101C005A603B687A681A617B681B685A1C7B684B
:10102C001A601437BD465DF8047B704780B485B0F8
:10103C0000AF78607B681B69FB607B685B687A68D3
:10104C0092689A607B689B687A6852685A60FB6801
:10105C005A687B689A4203D17B689A68FB685A602D
:10106C007B6800221A61FB681B685A1EFB681A60B9
:10107C00FB681B6818461437BD465DF8047B704747
:10108C0080B58AB002AFF860B9603B601346FB8054
:10109C00FB68002B02D100F02BFDFEE7BB6A072B8F
:1010AC0002D900F025FDFEE7FB881846396B00F0ED
:1010BC00B5FBB861BB69002B73D0BB691A6BFB889D
:1010CC0003F18043013B9B0013447B617B6923F05C
:1010DC0007037B617B6903F00703002B02D000F050
:1010EC0007FDFEE7FB880093B869B968BA6A7B6BA9
:1010FC0000F09AFA7869F9683A6800F0F5FB024654
:10110C00BB691A60FB6A002B02D0FB6ABA691A60D1
:10111C0000F0B6FC2E4B1B6801332D4A13602D4B8F
:10112C001B68002B09D12B4ABB691360284B1B6829
:10113C00012B0FD100F0C4FA0CE0274B1B68002BDD
:10114C0008D1244B1B68DA6ABB6A9A4202D8214A3E
:10115C00BB691360214B1B680133204A13601F4B82
:10116C001A68BB691A64BB69DB6A1A46012303FA65
:10117C0002F21B4B1B681343194A1360BB69DA6AF2
:10118C0013469B0013449B00164A1A44BB69043354
:10119C0010461946FFF7EEFE0123FB6100F090FCB0
:1011AC0002E04FF0FF33FB61FB69012B0BD10A4BC3
:1011BC001B68002B07D0074B1B68DA6ABB6A9A4284
:1011CC0001D200F04DFCFB6918462037BD4680BDAE
:1011DC005C0100104800001068010010780100103C
:1011EC00640100104C00001080B584B000AF786032
:1011FC000023FB607B68002B28D0184B1B68002B4E
:10120C0002D000F075FCFEE700F062F8144B1A688F
:10121C007B681344BB60134B1B6804331846FFF701
:10122C0005FF0346002B0BD10E4B1B68DB6A1A46DD
:10123C0001239340DA430C4B1B6813400A4A13609A
:10124C00B86800F0B5FA00F051F8F860FB68002BB4
:10125C0001D100F005FC1037BD4680BD7C010010AB
:10126C0060010010480000106401001080B586B0C9
:10127C0004AF002300930023019300230293002367
:10128C0003930F480F494FF480720023FFF7F8FEC9
:10129C0078607B68012B0AD100F02AFC0A4B0122F2
:1012AC001A600A4B00221A6000F07CFB05E07B6898
:1012BC00002B02D100F01CFCFEE70837BD4680BDB8
:1012CC00251600008C22000068010010600100103F
:1012DC0080B400AF044B1B680133034A1360BD4656
:1012EC005DF8047B704700BF7C01001080B582B0B4
:1012FC0000AF00237B60384B1B68002B02D100F041
:10130C00F7FBFEE700F0BCFB334B1B68013B324A9A
:10131C001360314B1B68002B57D1304B1B68002BD3
:10132C0053D030E02E4BDB68DB683B603B681833F6
:10133C001846FFF77BFE3B6804331846FFF776FE32
:10134C003B68DB6A1A46012303FA02F2254B1B6841
:10135C001343244A13603B68DA6A13469B00134418
:10136C009B00214A1A443B68043310461946FFF788
:10137C0001FE3B68DA6A1D4B1B68DB6A9A4202D39A
:10138C001B4B01221A60164B1B68002BCAD1194B40
:10139C001B68002B11D00CE000F02EF80346002B3C
:1013AC0002D0134B01221A60124B1B68013B114AED
:1013BC001360104B1B68002BEED10D4B1B68012BDF
:1013CC0003D101237B6000F04BFB00F079FB7B68C1
:1013DC0018460837BD4680BD7C0100105C0100102A
:1013EC001C010010640100104C000010480000109B
:1013FC00700100106C01001080B586B000AF0023A6
:10140C007B61524B1B68002B40F08E80504B1B684D
:10141C0001334F4A13604E4B1B683B613B69002BF9
:10142C0018D14C4B1B681B68002B02D000F060FBE2
:10143C00FEE7484B1B68FB60474B1B68454A136033
:10144C00454AFB681360454B1B680133434A1360E4
:10145C0000F026FA424B1B683A699A424FD33D4B37
:10146C001B681B68002B01D1012300E00023002B1B
:10147C0004D03B4B4FF0FF321A6040E0354B1B68F9
:10148C00DB68DB68BB60BB685B687B603A697B6868
:10149C009A4203D2324A7B68136030E0BB68043353
:1014AC001846FFF7C3FDBB689B6A002B04D0BB68D2
:1014BC0018331846FFF7BAFDBB68DB6A1A460123DE
:1014CC0003FA02F2274B1B681343264A1360BB68CE
:1014DC00DA6A13469B0013449B00234A1A44BB68E8
:1014EC00043310461946FFF745FDBB68DA6A1F4BFB
:1014FC001B68DB6A9A4201D301237B61AFE71B4B6C
:10150C001B68DA6A184913469B0013449B000B4472
:10151C001B68012B01D901237B61154B1B68002B28
:10152C0009D1FFF7F5FC06E0114B1B680133104A9B
:10153C001360FFF7EDFC0F4B1B68002B01D0012350
:10154C007B617B6918461837BD4680BD7C01001055
:10155C00600100101401001018010010740100103B
:10156C0004C00720640100104C000010480000105B
:10157C006C0100107001001080B584B000AF214BDD
:10158C001B68002B03D0204B01221A6037E01E4B46
:10159C0000221A601D4B1B687B607B68B3FA83F3D7
:1015AC00FB70FB78C3F11F03FB601949FA68134603
:1015BC009B0013449B000B441B68002B02D100F0D2
:1015CC0097FAFEE7FA6813469B0013449B00104AF7
:1015DC001344BB60BB685B685A68BB685A60BB68E5
:1015EC005A68BB6808339A4204D1BB685B685A6876
:1015FC00BB685A60BB685B68DB68064A13601037CF
:10160C00BD4680BD7C01001070010010640100100B
:10161C004C0000104800001080B582B000AF78601C
:10162C0000F08CF8FCE700BF80B586B000AFF86026
:10163C00B9607A603B6000237B6113E0BA687B6918
:10164C0013441978FA687B69134430330A461A71CB
:10165C00BA687B6913441B78002B00D105E07B69C9
:10166C0001337B617B690B2BE8D9FB68002283F883
:10167C003F207B68072B01D907237B60FB687A68C6
:10168C00DA62FB687A689A64FB680022DA64FB68A9
:10169C0004331846FFF762FCFB6818331846FFF753
:1016AC005DFCFB68FA681A617B68C3F10802FB6891
:1016BC009A61FB68FA685A621837BD4680BD00BF54
:1016CC0080B582B000AF00237B600CE07A681346D3
:1016DC009B0013449B00114A13441846FFF71EFC51
:1016EC007B6801337B607B68072BEFD90C48FFF7D5
:1016FC0015FC0C48FFF712FC0B48FFF70FFC0B48CE
:10170C00FFF70CFC0A48FFF709FC0A4B044A1A6065
:10171C00094B044A1A600837BD4680BD4C000010C6
:10172C00EC000010000100101C0100103001001032
:10173C0048010010140100101801001080B582B08F
:10174C0000AF28E0FFF7C4FD164B1B68002B0CBF45
:10175C0001230023DBB27B60FFF7C8FD7B68002B05
:10176C0019D100F08DF90F4BDB68DB683B603B68EF
:10177C0004331846FFF75AFC0B4B1B68013B0A4A13
:10178C0013600A4B1B68013B084A136000F098F980
:10179C00386800F075F8054B1B68002BD2D1083760
:1017AC00BD4680BD300100105C01001044010010EA
:1017BC0080B582B000AF7860134B1B687A685A60B2
:1017CC00124B1B687A689A4209D2114B1A680E4B5D
:1017DC001B68043310461946FFF7F0FB10E00D4B65
:1017EC001A68094B1B68043310461946FFF7E6FBD1
:1017FC00094B1B687A689A4202D2074A7B681360CD
:10180C000837BD4680BD00BF4800001060010010C5
:10181C00180100101401001004C0072080B584B01A
:10182C0000AF03463960FB80502000F0B7F9F86038
:10183C00FB68002B1FD03B68002B06D1FB889B005C
:10184C00184600F0ABF9034600E03B68FA681363F6
:10185C00FB681B6B002B05D1F86800F02DFA0023F8
:10186C00FB6008E0FB681A6BFB889B001046A52107
:10187C001A4600F0A1FCFB6818461037BD4680BD27
:10188C0080B582B000AF78607B681B6B184600F0A7
:10189C0013FA786800F010FA0837BD4680BD00BF17
:1018AC0080B483B000AF0E4B1B681B68002B01D1BA
:1018BC00012300E00023002B04D00A4B4FF0FF3231
:1018CC001A6008E0064B1B68DB68DB687B607B6892
:1018DC005B68044A13600C37BD465DF8047B7047A7
:1018EC001401001004C0072080B485B000AFF8606C
:1018FC00B9607A60FB68043BFB60FB684FF0807258
:10190C001A60FB68043BFB60BA68FB681A60FB68F2
:10191C00043BFB60094AFB681A60FB68143BFB60E4
:10192C007A68FB681A60FB68203BFB60FB68184612
:10193C001437BD465DF8047B704700BF4D1900009D
:10194C0080B500AF054B1B68B3F1FF3F02D000F030
:10195C00CFF8FEE700F0CCF8FEE700BF08C0072088
:10196C00074B19680868B0E8F00F80F30988BFF3DB
:10197C006F8F4FF0000080F311884EF00D0E704702
:10198C004800001006480068006880F3088862B6BA
:10199C0061B6BFF34F8FBFF36F8F00DF00BF000046
:1019AC0008ED00E080B584B000AF284BFB60FB680D
:1019BC001B78DBB2BB60FB68FF221A70FB681B78DC
:1019CC00DBB2FB71FB79DBB203F02803DAB2204BFC
:1019DC001A70204B07221A6009E01E4B1B68013B52
:1019EC001C4A1360FB79DBB25B00DBB2FB71FB7949
:1019FC00DBB2DBB25BB2002BEFDB164B1B681B02BE
:101A0C00144A1360134B1B6803F4E063114A136010
:101A1C00BB68DAB2FB681A700F4A0F4B1B6843F4B1
:101A2C00780313600C4A0C4B1B6843F0784313602B
:101A3C0000F0A2F8094B00221A60FFF7A3FFFFF792
:101A4C007FFF002318461037BD4680BD00E400E040
:101A5C00800100108401001020ED00E008C0072078
:101A6C0080B400AF054B4FF080521A60BFF34F8F1C
:101A7C00BFF36F8FBD465DF8047B704704ED00E04B
:101A8C0080B500AF00F034F80B4B1B6801330A4AE9
:101A9C001360BFF34F8FBFF36F8F074B1B68012B86
:101AAC0008D1064B1B6803F01F03002B02D000F07B
:101ABC001FF8FEE780BD00BF08C0072004ED00E062
:101ACC0080B500AF094B1B68002B02D100F010F859
:101ADC00FEE7064B1B68013B044A1360034B1B6873
:101AEC00002B02D1002000F00DF880BD08C00720AB
:101AFC00EFF311804FF0280181F311887047002318
:101B0C00184600BF80F31188704700BFEFF30980BF
:101B1C00BFF36F8F0D4B1A6820E9F00F10602DE9A1
:101B2C0008404FF0280080F31188FFF725FD4FF097
:101B3C00000080F31188BDE8084019680868B0E817
:101B4C00F00F80F30988BFF36F8F704748000010C7
:101B5C0080B500AFFFF7CCFFFFF74EFC0346002B20
:101B6C0003D0044B4FF080521A600020FFF7CAFFDD
:101B7C0080BD00BF04ED00E080B400AF044B054A0B
:101B8C001A60054B07221A60BD465DF8047B70474E
:101B9C0014E000E09F86010010E000E080B588B002
:101BAC0000AF786000237B61FFF792FB3E4B1B6814
:101BBC00002B04D100F0B8F83B4B01221A607B6873
:101BCC00002B0ED008231A467B6813447B607B687D
:101BDC0003F00703002B04D07B6823F007030833C2
:101BEC007B607B68002B57D07B6841F6F772934281
:101BFC0052D82E4BBB612D4B1B68FB6104E0FB697B
:101C0C00BB61FB691B68FB61FB695A687B689A4284
:101C1C0003D2FB691B68002BF1D1FB69244A934268
:101C2C003AD0BB691B68082213447B61FB691A68B4
:101C3C00BB691A60FB695A687B68D31A0822520088
:101C4C00934222D9FA697B681344FB60FB695A689A
:101C5C007B68D21AFB685A60FB697A685A60FB6829
:101C6C005B68BB60114B3B6102E03B691B683B61ED
:101C7C003B691B685A68BB689A42F6D33B691A6881
:101C8C00FB681A603B69FA681A600A4B1A68FB69B0
:101C9C005B68D31A074A1360FFF728FB7B69184669
:101CAC002037BD4680BD00BF982100108821001050
:101CBC00902100100CC0072080B586B000AF786072
:101CCC007B683B617B68002B27D008235B423A6919
:101CDC0013443B613B69FB60FFF7FAFAFB685B68F6
:101CEC00BB600F4B7B6102E07B691B687B617B698E
:101CFC001B685A68BB689A42F6D37B691A68FB6802
:101D0C001A607B69FA681A60FB685A68054B1B6895
:101D1C001344044A1360FFF7E9FA1837BD4680BD37
:101D2C00882100100CC0072080B483B000AF0F4B8B
:101D3C0023F007037B600E4A7B6813600C4B002278
:101D4C005A600C4B41F6F8725A600A4B00221A602A
:101D5C007B683B603B6841F6F8725A603B68054A09
:101D6C001A600C37BD465DF8047B7047900100107B
:101D7C00882100109021001080B584B000AF7860ED
:101D8C000023FB7300F0A2F80346FB73FB7B012BD3
:101D9C0002D0062B0AD013E000F07CF802200021C0
:101DAC0000F018F9002000F09DF809E000F072F83E
:101DBC000220042100F00EF9002000F093F800BF7F
:101DCC003220FFF711FADDE780B584B000AF786000
:101DDC000023FB8100F0BAF83220FFF705FA00F07F
:101DEC00BFF80346012B03D100F0C6F80346FB8174
:101DFC00FB89B3F5FA7F02D2012000F073F8FB895E
:101E0C0040F6AB52934206D9FB89B3F5805F02D200
:101E1C00062000F067F83220FFF7E6F9DAE700BF9A
:101E2C0080B500AF02200021012200F0E9F8022069
:101E3C000121012200F0E4F802200221012200F02D
:101E4C00DFF802200321012200F0DAF8022004213D
:101E5C00012200F0D5F802200521012200F0D0F873
:101E6C000220002100F0A0F80220012100F09CF8D3
:101E7C000220022100F098F80220032100F094F8CF
:101E8C000220042100F090F80220052100F08CF8CB
:101E9C0080BD00BF80B500AF0220002100F084F8A7
:101EAC000220012100F080F80220022100F07CF8D1
:101EBC000220032100F078F80220042100F074F8CD
:101ECC000220052100F070F880BD00BF80B400AF87
:101EDC00034B1B78DBB21846BD465DF8047B70479C
:101EEC009C21001080B483B000AF0346FB71044A00
:101EFC00FB7913700C37BD465DF8047B704700BF4F
:101F0C009C21001080B582B000AF01233B700323ED
:101F1C00BB701F237B703B4693E8030000F0D2F8A4
:101F2C000848094900F0E6F806480521002200F0AF
:101F3C001FF904480521012200F02CF90837BD4691
:101F4C0080BD00BF00400340400D030080B500AFD2
:101F5C000248012100F0FEF880BD00BF00400340A4
:101F6C0080B500AF03480521012200F0DFF80346DD
:101F7C00184680BD0040034080B500AF03480521E2
:101F8C0000F0C4F80346184680BD00BF0040034073
:101F9C0080B500AFFEF73AFA80BD00BF80B500AF48
:101FAC00FEF782F980BD00BF80B582B000AF03465A
:101FBC000A46FB711346BB71BB79012202FA03F38B
:101FCC001A46FB7918461146FEF700FD0837BD4648
:101FDC0080BD00BF80B582B000AF03460A46FB71DE
:101FEC001346BB71BB79012202FA03F31A46FB7943
:101FFC0018461146FEF7FEFC0837BD4680BD00BFF3
:10200C0080B582B000AF0346FB710B46BB71134623
:10201C007B71BB79012202FA03F31946FA797B79B9
:10202C0010461A46FEF7AEFC0837BD4680BD00BF11
:10203C0080B582B000AF0346FB710B46BB711346F3
:10204C007B71BB79012202FA03F31946FA797B7989
:10205C0010461A46FEF7E2FC0837BD4680BD00BFAD
:10206C0080B582B000AF03460A46FB711346BB71C4
:10207C00BB79012202FA03F31A46FB791846114682
:10208C00FEF762FD0837BD4680BD00BF80B582B04B
:10209C0000AF0346FB710B46BB7113467B71BA79DB
:1020AC00F9797B79084611461A46FEF7FBFC034684
:1020BC0018460837BD4680BD80B500AFFEF720FF3F
:1020CC0080BD00BF80B584B000AF3B4683E8030001
:1020DC003B783B727B787B72BB78BB72FB78FB7274
:1020EC003B793B7307F108031846FEF705FE1037E2
:1020FC00BD4680BD80B582B000AF7860396078682D
:10210C003968FEF72BFA0837BD4680BD80B582B022
:10211C0000AF78600B46FB70FB7878681946FEF7C9
:10212C0011FB034618460837BD4680BD80B582B00A
:10213C0000AF78600B46FB701346BB70BB78FA7827
:10214C00786811461A46FEF721FB034618460837F5
:10215C00BD4680BD80B582B000AF78600B46FB7089
:10216C00FB7878681946FEF735FA0837BD4680BD0E
:10217C0080B582B000AF78600B46FB701346BB7025
:10218C00FA78BB78786811461A46FEF761FA083778
:10219C00BD4680BD80B582B000AF78600B46FB7049
:1021AC001346BB70FA78BB78786811461A46FEF76E
:1021BC009BFA0837BD4680BD70B4840746D0541EC8
:1021CC00002A41D0CDB2034602E0621EE4B31446AD
:1021DC0003F8015B9A07F8D1032C2ED9CDB245EA4E
:1021EC0005250F2C45EA054519D9264603F11002A1
:1021FC00103E0F2E42F8105C42F80C5C42F8085C62
:10220C0042F8045C02F11002F2D8A4F1100222F0A0
:10221C000F0204F00F041032032C13440DD91E4688
:10222C002246043A032A46F8045BFAD8221F22F00D
:10223C0003020432134404F003042CB1C9B21C444D
:10224C0003F8011BA342FBD170BC70471446034634
:04225C00C2E700BF16
:102260004C454473207461736B000000504F542040
:102270007461736B00000000636F72652F6C706394
:10228000313778785F6164632E63000049444C45C0
:08229000000000000000000046
:1022980000E1F505FFFFFFFFAAAAAAAAF81F0000A0
:04000003000000CC2D
:00000001FF
