:1000000000800010BD0400005105000051050000F3
:1000100051050000510500005105000000000000DE
:10002000000000000000000000000000F1130000CC
:100030005105000000000000A5150000ED150000AE
:100040005105000051050000510500005105000058
:100050005105000051050000811A00005105000003
:100060005105000051050000510500005105000038
:100070005105000051050000510500005105000028
:100080005105000051050000510500005105000018
:1000900051050000FD000000510500005105000061
:1000A00051050000510500005105000051050000F8
:1000B00051050000510500005105000051050000E8
:0C00C00051050000510500005105000032
:1000CC0080B483B000AF0346FB71084997F9073041
:1000DC005B09FA7902F01F02012000FA02F241F8E2
:1000EC00232000BF0C37BD4680BC704700E100E008
:1000FC0080B500AF00220B21022001F0A7FC0346C3
:10010C00012B06D1012001F013FC0B21022001F080
:10011C0087FC01220B21022001F098FC0346012BE5
:10012C0003D10B21022001F07BFC00220C210220C8
:10013C0001F08CFC0346012B06D1022001F0F8FBE8
:10014C000C21022001F06CFC01220C21022001F098
:10015C007DFC0346012B03D10C21022001F060FC35
:10016C0000BF80BD80B500AF01F0F8FB01F0F0FBE3
:10017C0001F07CFB00220B21022001F021FC00226B
:10018C000C21022001F01CFC00220B21022001F0AA
:10019C002FFC01220B21022001F02AFC00220C2151
:1001AC00022001F025FC01220C21022001F020FC90
:1001BC001520FFF785FF00BF80BD00BF80B584B060
:1001CC0004AFFFF7CFFF0023039300230293084BE8
:1001DC0001930123009300234FF4807205490648D4
:1001EC0000F0D4FB00F0C8FC01231846BD4680BDCE
:1001FC00A0210010281B00001918000080B400AFCB
:10020C00514BD3F888301B0E03F00303032B63D13F
:10021C004D4BD3F80C3103F00303032B00F2908009
:10022C0001A252F823F000BF450200007B0200003F
:10023C00B102000045020000434BD3F88830C3F3F1
:10024C000E030133414A02FB03F23F4BD3F88830D3
:10025C001B0CDBB20133B2FBF3F23B4BD3F8043192
:10026C00DBB20133B2FBF3F3394A136068E0364B6F
:10027C00D3F88830C3F30E030133364A02FB03F282
:10028C00314BD3F888301B0CDBB20133B2FBF3F2E9
:10029C002D4BD3F80431DBB20133B2FBF3F32C4A10
:1002AC0013604DE0284BD3F88830C3F30E030133B1
:1002BC001A04254BD3F888301B0CDBB20133B2FB8C
:1002CC00F3F2214BD3F80431DBB20133B2FBF3F37D
:1002DC001F4A136000BF33E01B4BD3F80C3103F003
:1002EC000303032B2CD801A252F823F009030000BE
:1002FC001F0300003503000009030000124BD3F864
:10030C000431DBB20133144AB2FBF3F3104A13602D
:10031C0016E00D4BD3F80431DBB201330F4AB2FBBC
:10032C00F3F30B4A13600BE0074BD3F80431DBB249
:10033C0001334FF40042B2FBF3F3054A136000BFE4
:10034C0000BFBD4680BC704700C00F4000127A0051
:10035C0000C0072000366E0100093D00001BB700ED
:10036C0080B400AF4E4B2022C3F8A0214C4BD3F8E5
:10037C00A03103F02003002B07D000BF484BD3F86B
:10038C00A03103F04003002BF8D0454B0322C3F8F7
:10039C000421434B0022C3F8A821414B0022C3F88F
:1003AC00AC213F4B0122C3F80C213D4B3D4AC3F815
:1003BC0084203B4BAA22C3F88C20394B5522C3F81E
:1003CC008C20374B0122C3F88020354BAA22C3F86E
:1003DC008C20334B5522C3F88C2000BF304BD3F804
:1003EC00883003F08063002BF8D02D4B0322C3F828
:1003FC0080202B4BAA22C3F88C20294B5522C3F802
:10040C008C2000BF264BD3F8883003F04073002BB0
:10041C00F8D0234B2322C3F8A420214BAA22C3F8E3
:10042C00AC201F4B5522C3F8AC201D4B0122C3F846
:10043C00A0201B4BAA22C3F8AC20194B5522C3F8A1
:10044C00AC2000BF164BD3F8A83003F48063002B0C
:10045C00F8D0134B0322C3F8A020114BAA22C3F8E7
:10046C00AC200F4B5522C3F8AC2000BF0C4BD3F87B
:10047C00A83003F44073002BF8D0094B0A4AC3F898
:10048C00C420074B0022C3F8C821054B43F23A02A3
:10049C001A60064B00229A6000BFBD4680BC7047B4
:1004AC0000C00F4063000500DE87280400ED00E06B
:1004BC00684620F007018D4681B583B000AF174B1D
:1004CC007B60174B3B6007E03B681A1D3A607A680B
:1004DC00111D796012681A603B68124A9342F3D37B
:1004EC00114B3B6004E03B681A1D3A6000221A6015
:1004FC003B680E4A9342F6D30D4B3B6004E03B68DD
:10050C001A1D3A6000221A603B680A4A9342F6D3DD
:10051C00FFF726FFFFF752FEFEE700BF401B00006F
:10052C0000C0072010C0072000000010A8210010F8
:10053C0010C0072010C0072080B400AF00BFBD461C
:10054C0080BC704780B400AFFEE700BF80B483B0BE
:10055C0000AF78607B680B4A934201D100230CE01A
:10056C007B68094A934201D1012306E07B68074A64
:10057C00934201D1022300E0032318460C37BD46F9
:10058C0080BC704700C00040000001400080094062
:10059C0080B588B000AF78607868FFF7D7FF034666
:1005AC00FB777B689B68BB61BB6903F00E037B61C7
:1005BC00FB7F012B1AD14F4B1B6801334D4A136043
:1005CC007B69002B12D14C4B1B7EFB744B4B1B6875
:1005DC00002B05D0494B1B68FA7C1046984705E068
:1005EC00454A454B5B6823F0880353607B69062BB7
:1005FC0023D17B681B7DDBB2FB60FB6803F09E03A1
:10060C00FB60FB68002B18D0FB7F3D4A1B01134499
:10061C000C331B68002B0AD0FB7F394A1B01134497
:10062C000C331B68FA68D2B21046984705E07B6819
:10063C005B6823F004027B685A607B69042B02D050
:10064C007B690C2B15D1FB7F2D4A1B011344043302
:10065C001B68002B07D0FB7F294A1B011344043372
:10066C001B68984705E07B685B6823F001027B6898
:10067C005A607B69022B13D1FB7F214A1B01134467
:10068C001B68002B06D0FB7F1D4A1B0113441B6803
:10069C00984705E07B685B6823F002027B685A6030
:1006AC00BB6903F44073BB61BB69002B1ED07B6834
:1006BC001A6ABB6903F440731A437B681A62FB7FA6
:1006CC000F4A1B01134408331B68002B08D0FB7F17
:1006DC000B4A1B01134408331B68B869984705E0A3
:1006EC007B685B6823F440727B685A6000BF2037DC
:1006FC00BD4680BD440000100000014040000010C9
:10070C000000001080B500AF0248FFF741FF00BFAA
:10071C0080BD00BF0000014080B485B000AF03462F
:10072C00FB710023FB60FB79042B1CD801A252F84F
:10073C0023F000BF550700005B07000061070000B5
:10074C00670700006D0700000A4BFB600CE00A4BCA
:10075C00FB6009E0094BFB6006E0094BFB6003E022
:10076C00084BFB6000E000BFFB6818461437BD4621
:10077C0080BC704700C0092020C0092040C009205F
:10078C0060C0092080C0092080B584B000AF03464A
:10079C003960FB711346BB71FB791846FFF7BCFF40
:1007AC00F860FB68002B10D0BB79002B06D0FB68DF
:1007BC001A683B681A43FB681A6006E0FB681A6803
:1007CC003B68DB431A40FB681A6000BF1037BD461C
:1007DC0080BD00BF80B584B000AF03463960FB71AB
:1007EC00FB791846FFF798FFF860FB68002B02D0E6
:1007FC00FB683A689A6100BF1037BD4680BD00BFE8
:10080C0080B584B000AF03463960FB71FB791846A4
:10081C00FFF782FFF860FB68002B02D0FB683A6898
:10082C00DA6100BF1037BD4680BD00BF80B483B015
:10083C0000AF03463960FB711346BB71FB79002B8B
:10084C0009D1BB79002B06D11949194B1A693B68A0
:10085C0013430B6127E0FB79022B09D1BB79002BE9
:10086C0006D11349124B1A6B3B6813430B631AE006
:10087C00FB79002B09D1BB79012B06D10C490C4B10
:10088C005A693B6813434B610DE0FB79022B09D18C
:10089C00BB79012B06D10649054B5A6B3B681343B8
:1008AC004B6300E0FEE700BF0C37BD4680BC7047D1
:1008BC008080024080B483B000AF03463960FB7186
:1008CC001346BB71FB79002B0CD1BB79002B09D1E2
:1008DC001F4B5A683B6822FA03F3DBB203F00103A7
:1008EC00DBB230E0FB79022B0CD1BB79002B09D1A8
:1008FC00174B5A6A3B6822FA03F3DBB203F001038D
:10090C00DBB220E0FB79002B0CD1BB79012B09D198
:10091C000F4B9A683B6822FA03F3DBB203F0010336
:10092C00DBB210E0FB79022B0CD1BB79012B09D186
:10093C00074B9A6A3B6822FA03F3DBB203F001031C
:10094C00DBB200E0FEE718460C37BD4680BC7047B2
:10095C008080024080B483B000AF03463960FB71E5
:10096C00FB79002B03D1084A3B68D36007E0FB7985
:10097C00022B03D1044A3B68D36200E0FEE70C373C
:10098C00BD4680BC704700BF8080024080B58AB0F5
:10099C0002AFF860B9603B601346FB80FB68002B2C
:1009AC0002D100F0EBFDFEE7BB6A072B02D900F089
:1009BC00E5FDFEE7FB88396B184600F0BBFBB86120
:1009CC00BB69002B71D0BB691A6BFB8803F18043A8
:1009DC00013B9B0013447B617B6923F007037B6124
:1009EC007B6903F00703002B02D000F0C7FDFEE784
:1009FC00FB8800937B6BBA6AB968B86900F09AFA05
:100A0C003A68F968786900F0B3FC0246BB691A6071
:100A1C00FB6A002B02D0FB6ABA691A6000F074FD05
:100A2C002D4B1B6801332C4A13602C4B1B68002B7D
:100A3C0009D12A4ABB691360274B1B68012B0FD1C4
:100A4C0000F0C6FA0CE0264B1B68002B08D1234B98
:100A5C001B68DA6ABB6A9A4202D8204ABB691360E7
:100A6C00204B1B6801331F4A13601E4B1A68BB696D
:100A7C001A64BB69DB6A01229A401B4B1B68134347
:100A8C00194A1360BB69DA6A13469B0013449B0036
:100A9C00164A1A44BB6904331946104600F0E2FBAF
:100AAC000123FB6100F050FD02E04FF0FF33FB61CE
:100ABC00FB69012B0BD10A4B1B68002B07D0074B92
:100ACC001B68DA6ABB6A9A4201D200F00DFDFB6921
:100ADC0018462037BD4680BD5C0100104800001050
:100AEC006801001078010010640100104C00001027
:100AFC0080B584B000AF78600023FB607B68002B6E
:100B0C0028D0194B1B68002B02D000F037FDFEE7F4
:100B1C0000F066F8154B1A687B681344BB60144BE5
:100B2C001B680433184600F0F9FB0346002B0BD16D
:100B3C000F4B1B68DB6A012202FA03F3DA430D4BFD
:100B4C001B6813400B4A1360B86800F0BDFA00F044
:100B5C0055F8F860FB68002B01D100F0C5FC00BF14
:100B6C001037BD4680BD00BF7C0100106001001035
:100B7C00480000106401001080B586B004AF00235B
:100B8C00039300230293002301930023009300237B
:100B9C004FF480720E490F48FFF7F8FE78607B68BF
:100BAC00012B0AD100F0EAFC0B4B01221A600B4B13
:100BBC0000221A6000F03AFC05E07B68002B02D1A1
:100BCC0000F0DCFCFEE700BF0837BD4680BD00BF6F
:100BDC00341B0000310F0000680100106001001090
:100BEC0080B400AF044B1B680133034A136000BF91
:100BFC00BD4680BC704700BF7C01001080B582B040
:100C0C0000AF00237B60374B1B68002B02D100F038
:100C1C00B5FCFEE700F078FC324B1B68013B314A17
:100C2C001360304B1B68002B55D12F4B1B68002BCE
:100C3C0051D02EE02D4BDB68DB683B603B681833F2
:100C4C00184600F06BFB3B680433184600F066FB5B
:100C5C003B68DB6A01229A40254B1B681343244AEC
:100C6C0013603B68DA6A13469B0013449B00214ACD
:100C7C001A443B6804331946104600F0F3FA3B68FB
:100C8C00DA6A1D4B1B68DB6A9A4202D31B4B0122AA
:100C9C001A60164B1B68002BCCD1194B1B68002B10
:100CAC0011D00CE000F02EF80346002B02D0134BB1
:100CBC0001221A60124B1B68013B114A1360104B46
:100CCC001B68002BEED10D4B1B68012B03D10123AC
:100CDC007B6000F009FC00F037FC7B681846083795
:100CEC00BD4680BD7C0100105C0100101C01001091
:100CFC00640100104C00001048000010700100103E
:100D0C006C01001080B586B000AF00237B61514BA5
:100D1C001B68002B40F08C804F4B1B6801334E4AF4
:100D2C0013604D4B1B683B613B69002B18D14B4B3F
:100D3C001B681B68002B02D000F020FCFEE7474B21
:100D4C001B68FB60464B1B68444A1360444AFB68B3
:100D5C001360444B1B680133424A136000F02CFAB9
:100D6C00414B1B683A699A424DD33C4B1B681B683C
:100D7C00002B01D1012300E00023002B04D03A4BBF
:100D8C004FF0FF321A603EE0344B1B68DB68DB68C7
:100D9C00BB60BB685B687B603A697B689A4203D234
:100DAC00314A7B6813602EE0BB680433184600F0B0
:100DBC00B5FABB689B6A002B04D0BB681833184685
:100DCC0000F0ACFABB68DB6A01229A40274B1B6827
:100DDC001343264A1360BB68DA6A13469B0013441C
:100DEC009B00234A1A44BB6804331946104600F092
:100DFC0039FABB68DA6A1F4B1B68DB6A9A42B4D3B8
:100E0C0001237B61B1E71B4B1B68DA6A1849134657
:100E1C009B0013449B000B441B68012B01D901233D
:100E2C007B61154B1B68002B09D100F0E9F906E03A
:100E3C00114B1B680133104A136000F0E1F90F4BA2
:100E4C001B68002B01D001237B617B691846183786
:100E5C00BD4680BD7C010010600100101401001023
:100E6C00180100107401001004C007206401001068
:100E7C004C000010480000106C01001070010010B4
:100E8C0080B584B000AF224B1B68002B03D0214BE4
:100E9C0001221A6037E01F4B00221A601E4B1B68A0
:100EAC007B607B68B3FA83F3FB70FB78C3F11F03A1
:100EBC00FB601A49FA6813469B0013449B000B44D1
:100ECC001B68002B02D100F059FBFEE7FA681346B1
:100EDC009B0013449B00114A1344BB60BB685B68C6
:100EEC005A68BB685A60BB685A68BB6808339A4238
:100EFC0004D1BB685B685A68BB685A60BB685B68A6
:100F0C00DB68074A136000BF1037BD4680BD00BFC9
:100F1C007C01001070010010640100104C000010E6
:100F2C004800001080B582B000AF786000F090F8F7
:100F3C00FCE700BF80B586B000AFF860B9607A609E
:100F4C003B6000237B6112E0BA687B69134419781B
:100F5C00FA687B69134434330A461A70BA687B69A1
:100F6C0013441B78002B06D07B6901337B617B69B2
:100F7C000B2BE9D900E000BFFB68002283F83F206F
:100F8C007B68072B01D907237B60FB687A68DA62E0
:100F9C00FB687A689A64FB680022DA64FB680433A5
:100FAC00184600F053F9FB681833184600F04EF958
:100FBC00FB68FA681A617B68C3F10802FB689A61E6
:100FCC00FB68FA685A6200BF1837BD4680BD00BF87
:100FDC0080B582B000AF00237B600CE07A681346CA
:100FEC009B0013449B00124A1344184600F00EF960
:100FFC007B6801337B607B68072BEFD90D4800F0D1
:10100C0005F90D4800F002F90C4800F0FFF80C4807
:10101C0000F0FCF80B4800F0F9F80B4B054A1A608D
:10102C000A4B054A1A6000BF0837BD4680BD00BF99
:10103C004C000010EC000010000100101C0100100E
:10104C0030010010480100101401001018010010AC
:10105C0080B582B000AF28E0FFF7C2FD174B1B68CC
:10106C00002B0CBF01230023DBB27B60FFF7C6FD16
:10107C007B68002B19D100F047FA104BDB68DB685A
:10108C003B603B680433184600F048F90C4B1B6876
:10109C00013B0B4A13600B4B1B68013B094A136065
:1010AC0000F052FA386800F077F8064B1B68002BFA
:1010BC00D2D100BF0837BD4680BD00BF3001001043
:1010CC005C0100104401001080B582B000AF786064
:1010DC00134B1B687A685A60124B1B687A689A42E9
:1010EC0009D2114B1A680E4B1B6804331946104673
:1010FC0000F0DCF810E00D4B1A68094B1B68043348
:10110C001946104600F0D2F8094B1B687A689A42CF
:10111C0002D2074A7B68136000BF0837BD4680BD0A
:10112C00480000106001001018010010140100109C
:10113C0004C0072080B584B000AF03463960FB8043
:10114C00502000F073FAF860FB68002B1ED03B684F
:10115C00002B06D1FB889B00184600F067FA03466B
:10116C0000E03B68FA681363FB681B6B002B05D12E
:10117C00F86800F0E9FA0023FB6007E0FB68186BE5
:10118C00FB889B001A46A52100F07AFCFB681846E8
:10119C001037BD4680BD00BF80B582B000AF78600F
:1011AC007B681B6B184600F0CFFA786800F0CCFA1D
:1011BC0000BF0837BD4680BD80B483B000AF0E4B76
:1011CC001B681B68002B01D1012300E00023002BBE
:1011DC0004D00A4B4FF0FF321A6008E0064B1B6834
:1011EC00DB68DB687B607B685B68044A136000BF6C
:1011FC000C37BD4680BC70471401001004C007209A
:10120C0080B400AF00BFBD4680BC704780B483B0D3
:10121C0000AF78607B6803F108027B685A607B68DA
:10122C004FF0FF329A607B6803F108027B68DA604A
:10123C007B6803F108027B681A617B6800221A60E4
:10124C0000BF0C37BD4680BC704700BF80B483B074
:10125C0000AF78607B6800221A6100BF0C37BD4676
:10126C0080BC704780B485B000AF786039607B6813
:10127C005B68FB603B68FA685A60FB689A683B687D
:10128C009A60FB689B683A685A60FB683A689A6097
:10129C003B687A681A617B681B685A1C7B681A6009
:1012AC0000BF1437BD4680BC704700BF80B485B00A
:1012BC0000AF786039603B681B68BB60BB68B3F1FA
:1012CC00FF3F03D17B681B69FB600CE07B68083334
:1012DC00FB6002E0FB685B68FB60FB685B681A689C
:1012EC00BB689A42F6D9FB685A683B685A603B68FF
:1012FC005B683A689A603B68FA689A60FB683A687F
:10130C005A603B687A681A617B681B685A1C7B6858
:10131C001A6000BF1437BD4680BC704780B485B0DE
:10132C0000AF78607B681B69FB607B685B687A68E0
:10133C0092689A607B689B687A6852685A60FB680E
:10134C005A687B689A4203D17B689A68FB685A603A
:10135C007B6800221A61FB681B685A1EFB681A60C6
:10136C00FB681B6818461437BD4680BC704700BF2D
:10137C0080B485B000AFF860B9607A60FB68043B5C
:10138C00FB60FB684FF080721A60FB68043BFB60EB
:10139C00BA68FB681A60FB68043BFB60084AFB6890
:1013AC001A60FB68143BFB607A68FB681A60FB6888
:1013BC00203BFB60FB6818461437BD4680BC704769
:1013CC00D113000080B500AF054B1B68B3F1FF3F94
:1013DC0002D000F0D3F8FEE700F0D0F8FEE700BF33
:1013EC0008C00720074B19680868B0E8F00F80F3B5
:1013FC000988BFF36F8F4FF0000080F311884EF017
:10140C000D0E70474800001000BF00BF0648006872
:10141C00006880F3088862B661B6BFF34F8FBFF3E4
:10142C006F8F00DF00BF00BF08ED00E080B584B017
:10143C0000AF284BFB60FB681B78DBB2BB60FB6822
:10144C00FF221A70FB681B78DBB2FB71FB79DBB2F5
:10145C0003F02803DAB2204B1A70204B07221A60D3
:10146C0009E01E4B1B68013B1C4A1360FB79DBB285
:10147C005B00DBB2FB71FB79DBB25BB2002BF0DB08
:10148C00164B1B681B02154A1360144B1B6803F4A4
:10149C00E063124A1360BB68DAB2FB681A70104A38
:1014AC000F4B1B6843F4780313600D4A0C4B1B68FD
:1014BC0043F07843136000F0A7F80A4B00221A603F
:1014CC00FFF7A4FFFFF77EFF002318461037BD4639
:1014DC0080BD00BF00E400E080010010840100101A
:1014EC0020ED00E008C0072080B400AF054B4FF0A2
:1014FC0080521A60BFF34F8FBFF36F8F00BFBD4692
:10150C0080BC704704ED00E080B500AF00F036F809
:10151C000B4B1B6801330A4A1360BFF34F8FBFF3A9
:10152C006F8F074B1B68012B08D1064B1B6803F010
:10153C001F03002B02D000F021F8FEE700BF80BD96
:10154C0008C0072004ED00E080B500AF0A4B1B6813
:10155C00002B02D100F012F8FEE7074B1B68013B91
:10156C00054A1360044B1B68002B02D1002000F0CD
:10157C000FF800BF80BD00BF08C00720EFF311803B
:10158C004FF0280181F3118870470023184600BFE3
:10159C0080F31188704700BFEFF30980BFF36F8FA2
:1015AC000D4B1A6820E9F00F10602DE908404FF040
:1015BC00280080F31188FFF763FC4FF0000080F3E4
:1015CC001188BDE8084019680868B0E8F00F80F38E
:1015DC000988BFF36F8F70474800001000BF00BF31
:1015EC0080B500AFFFF7CAFFFFF78CFB0346002B5B
:1015FC0003D0044B4FF080521A600020FFF7C8FF55
:10160C0000BF80BD04ED00E080B400AF044B054A80
:10161C001A60054B07221A6000BFBD4680BC70479C
:10162C0014E000E09F86010010E000E080B588B077
:10163C0000AF786000237B61FFF7D2FA3E4B1B684A
:10164C00002B04D100F0BAF83B4B01221A607B68E6
:10165C00002B0ED008231A467B6813447B607B68F2
:10166C0003F00703002B04D07B6823F00703083337
:10167C007B607B68002B57D07B6841F6F7729342F6
:10168C0052D82E4BBB612D4B1B68FB6104E0FB69F0
:10169C00BB61FB691B68FB61FB695A687B689A42FA
:1016AC0003D2FB691B68002BF1D1FB69244A9342DE
:1016BC003AD0BB691B68082213447B61FB691A682A
:1016CC00BB691A60FB695A687B68D31A08225200FE
:1016DC00934222D9FA697B681344FB60FB695A6810
:1016EC007B68D21AFB685A60FB697A685A60FB689F
:1016FC005B68BB60114B3B6102E03B691B683B6163
:10170C003B691B685A68BB689A42F6D33B691A68F6
:10171C00FB681A603B69FA681A600A4B1A68FB6925
:10172C005B68D31A074A1360FFF768FA7B6918469F
:10173C002037BD4680BD00BF9821001088210010C5
:10174C00902100100CC0072080B586B000AF7860E7
:10175C007B683B617B68002B27D008235B423A698E
:10176C0013443B613B69FB60FFF73AFAFB685B682B
:10177C00BB60104B7B6102E07B691B687B617B6902
:10178C001B685A68BB689A42F6D37B691A68FB6877
:10179C001A607B69FA681A60FB685A68064B1B680A
:1017AC001344054A1360FFF729FA00BF1837BD46EA
:1017BC0080BD00BF882100100CC0072080B483B00E
:1017CC0000AF0F4B23F007037B600E4A7B6813605E
:1017DC000C4B00225A600C4B41F6F8725A600A4BC3
:1017EC0000221A607B683B603B6841F6F8725A60D5
:1017FC003B68054A1A6000BF0C37BD4680BC704779
:10180C0090010010882100109021001080B584B048
:10181C0000AF78600023FB7300F07EF80346FB7387
:10182C00FB7B012B02D0022B0ED01BE000F058F8F2
:10183C000021022000F0AEF80321022000F0AAF8EB
:10184C00002000F075F80DE000F04AF801210220AC
:10185C0000F0A0F80421022000F09CF8002000F019
:10186C0067F800BF6420FFF743F9D5E780B500AFF8
:10187C0001220021022000F0A3F801220121022004
:10188C0000F09EF801220221022000F099F80122BA
:10189C000321022000F094F801220421022000F020
:1018AC008FF801220521022000F08AF80021022085
:1018BC0000F05AF80121022000F056F80221022013
:1018CC0000F052F80321022000F04EF8042102200F
:1018DC0000F04AF80521022000F046F800BF80BD58
:1018EC0080B500AF0021022000F03EF8012102205B
:1018FC0000F03AF80221022000F036F80321022011
:10190C0000F032F80421022000F02EF8052102200C
:10191C0000F02AF800BF80BD80B400AF034B1B78E9
:10192C00DBB21846BD4680BC704700BF9C2100103E
:10193C0080B483B000AF0346FB71044AFB7913708B
:10194C0000BF0C37BD4680BC704700BF9C21001007
:10195C0080B500AFFEF704FD00BF80BD80B500AFC1
:10196C00FEF74CFC00BF80BD80B582B000AF0346D3
:10197C000A46FB711346BB71BB79012202FA03F3D1
:10198C001A46FB7911461846FEF724FF00BF0837AC
:10199C00BD4680BD80B582B000AF03460A46FB71E0
:1019AC001346BB71BB79012202FA03F31A46FB7989
:1019BC0011461846FEF724FF00BF0837BD4680BD10
:1019CC0080B582B000AF0346FB710B46BB7113466A
:1019DC007B71BB79012202FA03F319467A79FB7900
:1019EC001846FEF7D1FE00BF0837BD4680BD00BFCC
:1019FC0080B582B000AF0346FB710B46BB7113463A
:101A0C007B71BB79012202FA03F319467A79FB79CF
:101A1C001846FEF70BFF00BF0837BD4680BD00BF60
:101A2C0080B582B000AF03460A46FB711346BB710A
:101A3C00BB79012202FA03F31A46FB7911461846C8
:101A4C00FEF788FF00BF0837BD4680BD80B582B069
:101A5C0000AF0346FB710B46BB7113467B71B97922
:101A6C007A79FB791846FEF725FF034618460837A6
:101A7C00BD4680BD80B500AFFEF744FE00BF80BD03
:101A8C0070B4840746D0541E002A41D0CDB2034610
:101A9C0002E0621EE4B3144603F8015B9A07F8D126
:101AAC00032C2ED9CDB245EA05250F2C45EA054568
:101ABC0019D9264603F11002103E0F2E42F8105C85
:101ACC0042F80C5C42F8085C42F8045C02F110022B
:101ADC00F2D8A4F1100222F00F0204F00F0410321D
:101AEC00032C13440DD91E462246043A032A46F809
:101AFC00045BFAD8221F22F003020432134404F0D0
:101B0C0003042CB1C9B21C4403F8011BA342FBD142
:0C1B1C0070BC704714460346C2E700BFCF
:101B28004C454473207461736B00000049444C4574
:081B38000000000000000000A5
:101B400000E1F505FFFFFFFFAAAAAAAAF81F0000FF
:04000003000000CC2D
:00000001FF
