:1000000000800010B90100004D0200004D02000008
:100010004D0200004D0200004D02000000000000F3
:100020000000000000000000000000009513000028
:100030004D0200000000000049150000911500006D
:100040004D0200004D0200004D0200004D02000074
:100050004D0200004D020000C51900004D020000D5
:100060004D0200004D0200004D0200004D02000054
:100070004D0200004D0200004D0200004D02000044
:100080004D0200004D0200004D0200004D02000034
:100090004D020000FD0000004D0200004D02000076
:1000A0004D0200004D0200004D0200004D02000014
:1000B0004D0200004D0200004D0200004D02000004
:0C00C0004D0200004D0200004D02000047
:1000CC0080B483B000AF0346FB71FB7903F01F03D0
:1000DC00012202FA03F1054A97F907305B0942F84D
:1000EC00231000BF0C37BD4680BC704700E100E018
:1000FC0080B500AF00220B21022001F049FC034621
:10010C00012B03D10B21022001F02CFC01220B212D
:10011C00022001F03DFC0346012B03D10B210220F0
:10012C0001F020FC00BF80BD80B500AF01F0BAFB30
:10013C0001F0B2FB01F076FB00220B21022001F052
:10014C00E3FB00220C21022001F0DEFB00220B213C
:10015C00022001F0F0FB01220B21022001F0EBFB4D
:10016C001520FFF7ADFF00BF80BD000080B584B047
:10017C0004AFFFF7D9FF0023039300230293084B2E
:10018C0001930123009300234FF480720549064824
:10019C0000F088FC00F07CFD01231846BD4680BDB4
:1001AC00A02100106C1A0000BD170000684620F05A
:1001BC0007018D4681B583B000AF174B7B60174BA1
:1001CC003B6007E07A68131D7B603B68191D396042
:1001DC0012681A603B68124A9342F3D3114B3B608E
:1001EC0004E03B681A1D3A6000221A603B680E4A14
:1001FC009342F6D30D4B3B6004E03B681A1D3A600A
:10020C0000221A603B680A4A9342F6D300F0CEF8FB
:10021C00FFF7ACFFFEE700BF801A000000C007200C
:10022C0010C0072000000010A821001010C00720EB
:10023C0010C0072080B400AF00BFBD4680BC704723
:10024C0080B400AFFEE7000080B400AF514BD3F890
:10025C0088301B0E03F00303032B63D14D4BD3F8F3
:10026C000C3103F00303032B00F2908001A252F82F
:10027C0023F000BF91020000C7020000FD02000045
:10028C0091020000434BD3F88830C3F30E030133C3
:10029C00414A02FB03F23F4BD3F888301B0CDBB214
:1002AC000133B2FBF3F23B4BD3F80431DBB2013335
:1002BC00B2FBF3F3394A136068E0364BD3F888305D
:1002CC00C3F30E030133364A02FB03F2314BD3F86E
:1002DC0088301B0CDBB20133B2FBF3F22D4BD3F89D
:1002EC000431DBB20133B2FBF3F32C4A13604DE063
:1002FC00284BD3F88830C3F30E0301331A04254B73
:10030C00D3F888301B0CDBB20133B2FBF3F2214B78
:10031C00D3F80431DBB20133B2FBF3F31F4A1360A1
:10032C0000BF33E01B4BD3F80C3103F00303032B5A
:10033C002CD801A252F823F0550300006B030000E7
:10034C008103000055030000124BD3F80431DBB2DB
:10035C000133144AB2FBF3F3104A136016E00D4B51
:10036C00D3F80431DBB201330F4AB2FBF3F30B4A7F
:10037C0013600BE0074BD3F80431DBB201334FF4BD
:10038C000042B2FBF3F3054A136000BF00BFBD4649
:10039C0080BC704700C00F4000127A0000C00720DC
:1003AC0000366E0100093D00001BB70080B400AFA1
:1003BC004E4B2022C3F8A0214C4BD3F8A03103F0B4
:1003CC002003002B07D000BF484BD3F8A03103F01B
:1003DC004003002BF8D0454B0322C3F80421434BB8
:1003EC000022C3F8A821414B0022C3F8AC213F4B9B
:1003FC000122C3F80C213D4B3D4AC3F884203B4BF2
:10040C00AA22C3F88C20394B5522C3F88C20374BC9
:10041C000122C3F88020354BAA22C3F88C20334B21
:10042C005522C3F88C2000BF304BD3F8883003F032
:10043C008063002BF8D02D4B0322C3F880202B4B6C
:10044C00AA22C3F88C20294B5522C3F88C2000BF5C
:10045C00264BD3F8883003F04073002BF8D0234B95
:10046C002322C3F8A420214BAA22C3F8AC201F4B93
:10047C005522C3F8AC201D4B0122C3F8A0201B4B06
:10048C00AA22C3F8AC20194B5522C3F8AC2000BFEC
:10049C00164BD3F8A83003F48063002BF8D0134B21
:1004AC000322C3F8A020114BAA22C3F8AC200F4B97
:1004BC005522C3F8AC2000BF0C4BD3F8A83003F482
:1004CC004073002BF8D0094B0A4AC3F8C420074BE1
:1004DC000022C3F8C821054B43F23A021A60064BBE
:1004EC0000229A6000BFBD4680BC704700C00F4020
:1004FC0063000500DE87280400ED00E080B485B0C1
:10050C0000AF0346FB710023FB60FB79042B1CD866
:10051C0001A252F823F000BF390500003F0500008E
:10052C00450500004B050000510500000A4BFB601F
:10053C000CE00A4BFB6009E0094BFB6006E0094B41
:10054C00FB6003E0084BFB6000E000BFFB68184653
:10055C001437BD4680BC704700C0092020C009205C
:10056C0040C0092060C0092080C0092080B584B03B
:10057C0000AF03463960FB711346BB71FB7918461B
:10058C00FFF7BCFFF860FB68002B10D0BB79002B89
:10059C0006D0FB681A683B681A43FB681A6006E0D1
:1005AC00FB681A683B68DB431A40FB681A6000BFA3
:1005BC001037BD4680BD80B584B000AF03463960AE
:1005CC00FB71FB791846FFF799FFF860FB68002B6D
:1005DC0002D0FB683A689A6100BF1037BD4680BDF7
:1005EC0080B584B000AF03463960FB71FB791846C7
:1005FC00FFF784FFF860FB68002B02D0FB683A68B9
:10060C00DA6100BF1037BD4680BD000080B483B0F6
:10061C0000AF03463960FB711346BB71FB79002BAD
:10062C0009D1BB79002B06D1194B1A6918493B68C3
:10063C0013430B6127E0FB79022B09D1BB79002B0B
:10064C0006D1134B1A6B12493B6813430B631AE028
:10065C00FB79002B09D1BB79012B06D10C4B5A69C4
:10066C000B493B6813434B610DE0FB79022B09D11D
:10067C00BB79012B06D1064B5A6B05493B681343DA
:10068C004B6300E0FEE700BF0C37BD4680BC7047F3
:10069C008080024080B483B000AF03463960FB71A8
:1006AC001346BB71FB79002B0CD1BB79002B09D104
:1006BC001F4B5A683B6822FA03F3DBB203F00103C9
:1006CC00DBB230E0FB79022B0CD1BB79002B09D1CA
:1006DC00174B5A6A3B6822FA03F3DBB203F00103AF
:1006EC00DBB220E0FB79002B0CD1BB79012B09D1BB
:1006FC000F4B9A683B6822FA03F3DBB203F0010359
:10070C00DBB210E0FB79022B0CD1BB79012B09D1A8
:10071C00074B9A6A3B6822FA03F3DBB203F001033E
:10072C00DBB200E0FEE718460C37BD4680BC7047D4
:10073C008080024080B483B000AF03463960FB7107
:10074C00FB79002B03D1084A3B68D36007E0FB79A7
:10075C00022B03D1044A3B68D36200E0FEE70C375E
:10076C00BD4680BC704700BF8080024080B483B01F
:10077C0000AF78607B680B4A934201D100230CE0F8
:10078C007B68094A934201D1012306E07B68074A42
:10079C00934201D1022300E0032318460C37BD46D7
:1007AC0080BC704700C00040000001400080094040
:1007BC0080B588B000AF78607868FFF7D7FF034644
:1007CC00FB777B689B68BB61BB6903F00E037B61A5
:1007DC00FB7F012B1AD14F4B1B6801334D4A136021
:1007EC007B69002B12D14C4B1B7EFB744B4B1B6853
:1007FC00002B05D0494B1B68FA7C1046984705E046
:10080C00454B5B68444A23F0880353607B69062B95
:10081C0023D17B681B7DDBB2FB60FB6803F09E037E
:10082C00FB60FB68002B18D0FB7F3D4A1B01134477
:10083C000C331B68002B0AD0FB7F394A1B01134475
:10084C000C331B68FA68D2B21046984705E07B68F7
:10085C005B6823F004027B685A607B69042B02D02E
:10086C007B690C2B15D1FB7F2D4A1B0113440433E0
:10087C001B68002B07D0FB7F294A1B011344043350
:10088C001B68984705E07B685B6823F001027B6876
:10089C005A607B69022B13D1FB7F214A1B01134445
:1008AC001B68002B06D0FB7F1D4A1B0113441B68E1
:1008BC00984705E07B685B6823F002027B685A600E
:1008CC00BB6903F44073BB61BB69002B1ED07B6812
:1008DC001A6ABB6903F440731A437B681A62FB7F84
:1008EC000F4A1B01134408331B68002B08D0FB7FF5
:1008FC000B4A1B01134408331B68B869984705E081
:10090C007B685B6823F440727B685A6000BF2037B9
:10091C00BD4680BD440000100000014040000010A6
:10092C000000001080B500AF0248FFF741FF00BF88
:10093C0080BD00BF0000014080B483B000AF786080
:10094C007B6803F108027B685A607B684FF0FF32CA
:10095C009A607B6803F108027B68DA607B6803F1BC
:10096C0008027B681A617B6800221A6000BF0C3792
:10097C00BD4680BC704780B483B000AF78607B68A4
:10098C0000221A6100BF0C37BD4680BC704780B492
:10099C0085B000AF786039607B685B68FB603B6852
:1009AC00FA685A60FB689A683B689A60FB689B68B7
:1009BC003A685A60FB683A689A603B687A681A61D0
:1009CC007B681B685A1C7B681A6000BF1437BD46D5
:1009DC0080BC704780B485B000AF786039603B68EC
:1009EC001B68BB60BB68B3F1FF3F03D17B681B691D
:1009FC00FB600CE07B680833FB6002E0FB685B6823
:100A0C00FB60FB685B681B68BA689A42F6D2FB68AD
:100A1C005A683B685A603B685B683A689A603B6806
:100A2C00FA689A60FB683A685A603B687A681A619F
:100A3C007B681B685A1C7B681A6000BF1437BD4664
:100A4C0080BC704780B485B000AF78607B681B6950
:100A5C00FB607B685B687A6892689A607B689B68CD
:100A6C007A6852685A60FB685B687A689A4203D16C
:100A7C007B689A68FB685A607B6800221A61FB6885
:100A8C001B685A1EFB681A60FB681B6818461437F3
:100A9C00BD4680BC704780B400AF00BFBD4680BC73
:100AAC007047000080B58AB002AFF860B9603B6057
:100ABC001346FB80FB68002B02D100F031FDFEE7F2
:100ACC00BB6A072B02D900F02BFDFEE7FB88396BC4
:100ADC00184600F0B9FBB861BB69002B71D0BB693B
:100AEC001A6BFB8803F18043013B9B0013447B6131
:100AFC007B6923F007037B617B6903F00703002B01
:100B0C0002D000F00DFDFEE7FB8800937B6BBA6A08
:100B1C00B968B86900F099FA3A68F968786900F030
:100B2C00F9FB0246BB691A60FB6A002B02D0FB6A18
:100B3C00BA691A6000F0BAFC2D4B1B6801332C4AC1
:100B4C0013602C4B1B68002B09D12A4ABB6913601C
:100B5C00274B1B68012B0FD100F0C4FA0CE0264B7D
:100B6C001B68002B08D1234B1B68DB6ABA6A9A42BC
:100B7C0002D3204ABB691360204B1B6801331F4A08
:100B8C0013601E4B1A68BB691A64BB69DB6A0122CD
:100B9C009A401B4B1B681343194A1360BB69DA6AF2
:100BAC0013469B0013449B00164A1A44BB6904333A
:100BBC0019461046FFF7EBFE0123FB6100F096FC93
:100BCC0002E04FF0FF33FB61FB69012B0BD10A4BA9
:100BDC001B68002B07D0074B1B68DB6ABA6A9A426A
:100BEC0001D900F053FCFB6918462037BD4680BD87
:100BFC005C01001048000010680100107801001022
:100C0C00640100104C00001080B584B000AF786017
:100C1C000023FB607B68002B28D0194B1B68002B32
:100C2C0002D000F07DFCFEE700F066F8154B1B6867
:100C3C007A681344BB60144B1B6804331846FFF7E7
:100C4C0001FF0346002B0BD10F4B1B68DB6A012203
:100C5C0002FA03F3DA430D4B1B6813400B4A136083
:100C6C00B86800F0BBFA00F055F8F860FB68002B90
:100C7C0001D100F00BFC00BF1037BD4680BD00BF9A
:100C8C007C0100106001001048000010640100108D
:100C9C0080B586B004AF0023039300230293002396
:100CAC0001930023009300234FF480720E490F48E8
:100CBC00FFF7F8FE78607B68012B0AD100F030FC5E
:100CCC000B4B01221A600B4B00221A6000F080FBC8
:100CDC0005E07B68002B02D100F022FCFEE700BF90
:100CEC000837BD4680BD00BF781A000049100000CF
:100CFC00680100106001001080B400AF044B1B6849
:100D0C000133034A136000BFBD4680BC704700BF6F
:100D1C007C01001080B582B000AF00237B60374BA4
:100D2C001B68002B02D100F0FBFBFEE700F0BEFBC2
:100D3C00324B1B68013B314A1360304B1B68002B54
:100D4C0055D12F4B1B68002B51D02EE02D4BDB685F
:100D5C00DB683B603B6818331846FFF773FE3B6853
:100D6C0004331846FFF76EFE3B68DB6A01229A409B
:100D7C00254B1B681343244A13603B68DA6A1346FD
:100D8C009B0013449B00214A1A443B6804331946C8
:100D9C001046FFF7FCFD3B68DA6A1D4B1B68DB6AEB
:100DAC009A4202D31B4B01221A60164B1B68002B74
:100DBC00CCD1194B1B68002B11D00CE000F02EF895
:100DCC000346002B02D0134B01221A60124B1B68F6
:100DDC00013B114A1360104B1B68002BEED10D4BDD
:100DEC001B68012B03D101237B6000F04FFB00F04B
:100DFC007DFB7B6818460837BD4680BD7C01001022
:100E0C005C0100101C010010640100104C0000106B
:100E1C0048000010700100106C01001080B586B005
:100E2C0000AF00237B61514B1B68002B40F08C8082
:100E3C004F4B1B6801334E4A13604D4B1B683B6193
:100E4C003B69002B18D14B4B1B681B68002B02D045
:100E5C0000F066FBFEE7474B1B68FB60464B1B68CC
:100E6C00444A1360444AFB681360444B1B680133CB
:100E7C00424A136000F02AFA414B1B683A699A42C5
:100E8C004DD33C4B1B681B68002B01D1012300E0A8
:100E9C000023002B04D03A4B4FF0FF321A603EE097
:100EAC00344B1B68DB68DB68BB60BB685B687B60D2
:100EBC003A697B689A4203D2314A7B6813602EE010
:100ECC00BB6804331846FFF7BDFDBB689B6A002B5B
:100EDC0004D0BB6818331846FFF7B4FDBB68DB6A57
:100EEC0001229A40274B1B681343264A1360BB68A8
:100EFC00DA6A13469B0013449B00234A1A44BB68CE
:100F0C00043319461046FFF742FDBB68DA6A1F4BE3
:100F1C001B68DB6A9A42B4D301237B61B1E71B4B9C
:100F2C001B68DA6A184913469B0013449B000B4458
:100F3C001B68012B01D901237B61154B1B68002B0E
:100F4C0009D1FFF7A8FD06E0114B1B680133104ACD
:100F5C001360FFF7A0FD0F4B1B68002B01D0012382
:100F6C007B617B6918461837BD4680BD7C0100103B
:100F7C006001001014010010180100107401001021
:100F8C0004C00720640100104C0000104800001041
:100F9C006C0100107001001080B584B000AF224BC2
:100FAC001B68002B03D0214B01221A6037E01F4B2A
:100FBC0000221A601E4B1B687B607B68B3FA83F3BC
:100FCC00FB70FB78C3F11F03FB601A49FA681346E8
:100FDC009B0013449B000B441B68002B02D100F0B8
:100FEC009FFAFEE7FA6813469B0013449B00114AD4
:100FFC001344BB60BB685B685A68BB685A60BB68CB
:10100C005A68BB6808339A4204D1BB685B685A685B
:10101C00BB685A60BB685B68DB68074A136000BF3B
:10102C001037BD4680BD00BF7C0100107001001060
:10103C00640100104C0000104800001080B582B014
:10104C0000AF786000F08EF8FCE780B586B000AF9A
:10105C00F860B9607A603B6000237B6112E0BA688B
:10106C007B6913441978FA687B69134434330A4654
:10107C001A70BA687B6913441B78002B06D07B6905
:10108C0001337B617B690B2BE9D900E000BFFB6866
:10109C00002283F83F207B68072B01D907237B6054
:1010AC00FB687A68DA62FB687A689A64FB680022EB
:1010BC00DA64FB6804331846FFF75DFCFB681833F1
:1010CC001846FFF758FCFB68FA681A617B68C3F195
:1010DC000802FB689A61FB68FA685A6200BF18370D
:1010EC00BD4680BD80B582B000AF00237B600CE0B4
:1010FC007A6813469B0013449B00124A134418460B
:10110C00FFF71AFC7B6801337B607B68072BEFD9F8
:10111C000D48FFF711FC0D48FFF70EFC0C48FFF7CC
:10112C000BFC0C48FFF708FC0B48FFF705FC0B4BBE
:10113C00054A1A600A4B054A1A6000BF0837BD46BB
:10114C0080BD00BF4C000010EC000010000100102E
:10115C001C01001030010010480100101401001097
:10116C001801001080B582B000AF28E0FFF7C4FD75
:10117C00174B1B68002B0CBF01230023DBB27B60D9
:10118C00FFF7C8FD7B68002B19D100F08FF9104BCD
:10119C00DB68DB683B603B6804331846FFF752FCA6
:1011AC000C4B1B68013B0B4A13600B4B1B68013B40
:1011BC00094A136000F09AF9386800F076F8064B8B
:1011CC001B68002BD2D100BF0837BD4680BD00BFC5
:1011DC00300100105C0100104401001080B582B099
:1011EC0000AF7860134B1B687A685A60124B1B680F
:1011FC007A689A4209D2114B1A680E4B1B68043359
:10120C0019461046FFF7E6FB10E00D4B1A68094B28
:10121C001B68043319461046FFF7DCFB094B1B68AF
:10122C007A689A4202D2074A7B68136000BF08377B
:10123C00BD4680BD48000010600100101801001070
:10124C001401001004C0072080B584B000AF034621
:10125C003960FB80502000F0BBF9F860FB68002B74
:10126C001ED03B68002B06D1FB889B00184600F073
:10127C00AFF9034600E03B68FA681363FB681B6B2D
:10128C00002B05D1F86800F031FA0023FB6007E071
:10129C00FB68186BFB889B001A46A52100F092FB9B
:1012AC00FB6818461037BD4680BD80B582B000AFD4
:1012BC0078607B681B6B184600F018FA786800F0B1
:1012CC0015FA00BF0837BD4680BD000080B483B05E
:1012DC0000AF0E4B1B681B68002B01D1012300E0F3
:1012EC000023002B04D00A4B4FF0FF321A6008E0A9
:1012FC00064B1B68DB68DB687B607B685B68044AB9
:10130C00136000BF0C37BD4680BC70471401001041
:10131C0004C0072080B485B000AFF860B9607A6073
:10132C00FB68043BFB60FB684FF080721A60FB6843
:10133C00043BFB60BA68FB681A60FB68043BFB600B
:10134C00084AFB681A60FB68143BFB607A68FB6810
:10135C001A60FB68203BFB60FB6818461437BD46DF
:10136C0080BC70477513000080B500AF054B1B683F
:10137C00B3F1FF3F02D000F0D3F8FEE700F0D0F855
:10138C00FEE700BF08C00720074B19680868B0E8E3
:10139C00F00F80F30988BFF36F8F4FF0000080F3DC
:1013AC0011884EF00D0E70474800001000BF00BFB2
:1013BC0006480068006880F3088862B661B6BFF31F
:1013CC004F8FBFF36F8F00DF00BF00BF08ED00E051
:1013DC0080B584B000AF284BFB60FB681B78DBB298
:1013EC00BB60FB68FF221A70FB681B78DBB2FB71D9
:1013FC00FB79DBB203F02803DAB2204B1A70204BD6
:10140C0007221A6009E01E4B1B68013B1C4A136043
:10141C00FB79DBB25B00DBB2FB71FB79DBB203F077
:10142C008003802BEFD0164B1B681B02144A1360F1
:10143C00134B1B6803F4E063114A1360BB68DAB208
:10144C00FB681A700F4B1B680E4A43F47803136049
:10145C000C4B1B680B4A43F07843136000F0A6F862
:10146C00094B00221A60FFF7A3FFFFF77DFF002353
:10147C0018461037BD4680BD00E400E08001001026
:10148C008401001020ED00E008C0072080B400AFFC
:10149C00054B4FF080521A60BFF34F8FBFF36F8F25
:1014AC0000BFBD4680BC704704ED00E080B500AFC6
:1014BC0000F036F80B4B1B6801330A4A1360BFF37C
:1014CC004F8FBFF36F8F074B1B68012B08D1064B57
:1014DC001B6803F01F03002B02D000F021F8FEE77D
:1014EC0000BF80BD08C0072004ED00E080B500AF50
:1014FC000A4B1B68002B02D100F012F8FEE7074BD9
:10150C001B68013B054A1360044B1B68002B02D17E
:10151C00002000F00EF800BF80BD00BF08C00720FF
:10152C00EFF311804FF0280181F3118870470023ED
:10153C00184680F31188704700BF0000EFF3098054
:10154C00BFF36F8F0D4B1A6820E9F00F10602DE977
:10155C0008404FF0280080F31188FFF71DFD4FF075
:10156C00000080F31188BDE8084019680868B0E8ED
:10157C00F00F80F30988BFF36F8F7047480000109D
:10158C0000BF00BF80B500AFFFF7CAFFFFF746FCF6
:10159C000346002B03D0044B4FF080521A600020FE
:1015AC00FFF7C7FF00BF80BD04ED00E080B400AFC3
:1015BC00044B054A1A60054B07221A6000BFBD4652
:1015CC0080BC704714E000E09F86010010E000E052
:1015DC0080B588B000AF786000237B61FFF78CFB8F
:1015EC003E4B1B68002B04D100F0BAF83B4B012298
:1015FC001A607B68002B0ED008231A467B681344B4
:10160C007B607B6803F00703002B04D07B6823F01E
:10161C00070308337B607B68002B57D07B6841F64F
:10162C00F772934252D82E4BBB612D4B1B68FB615A
:10163C0004E0FB69BB61FB691B68FB61FB695B68D0
:10164C007A689A4203D9FB691B68002BF1D1FB69BC
:10165C00244A93423AD0BB691B68082213447B612D
:10166C00FB691A68BB691A60FB695A687B68D31AF4
:10167C0008225200934222D9FA697B681344FB601A
:10168C00FB695A687B68D21AFB685A60FB697A68F6
:10169C005A60FB685B68BB60114B3B6102E03B69C5
:1016AC001B683B613B691B685B68BA689A42F6D859
:1016BC003B691A68FB681A603B69FA681A600A4B46
:1016CC001A68FB695B68D31A074A1360FFF722FBA1
:1016DC007B6918462037BD4680BD00BF982100109D
:1016EC0088210010902100100CC0072080B586B016
:1016FC0000AF78607B683B617B68002B27D00823A8
:10170C005B423A6913443B613B69FB60FFF7F4FAB7
:10171C00FB685B68BB60104B7B6102E07B691B68FC
:10172C007B617B691B685B68BA689A42F6D87B69F7
:10173C001A68FB681A607B69FA681A60FB685A6859
:10174C00064B1B681344054A1360FFF7E3FA00BF0E
:10175C001837BD4680BD00BF882100100CC0072083
:10176C0080B483B000AF0F4B23F007037B600E4AAD
:10177C007B6813600C4B00225A600C4B41F6F872DC
:10178C005A600A4B00221A607B683B603B6841F64A
:10179C00F8725A603B68054A1A6000BF0C37BD46A8
:1017AC0080BC70479001001088210010902100101F
:1017BC0080B582B000AF7860194B1B78002B02D03B
:1017CC00012B10D01FE00021022000F087F803212C
:1017DC00022000F083F8124B01221A704FF47A7039
:1017EC00FFF712FA17E00021022000F061F8032144
:1017FC00022000F05DF80A4B00221A704FF47A7048
:10180C00FFF702FA07E0064B00221A704FF47A70C9
:10181C00FFF7FAF900BF6420FFF7F6F9CCE700BF39
:10182C009C21001080B500AF01220021022000F0A5
:10183C006BF801220121022000F066F8012202213E
:10184C00022000F061F801220321022000F05CF874
:10185C0001220421022000F057F801220521022068
:10186C0000F052F80021022000F022F801210220A1
:10187C0000F01EF80221022000F01AF803210220C9
:10188C0000F016F80421022000F012F805210220C5
:10189C0000F00EF800BF80BD80B500AFFEF786FDEE
:1018AC0000BF80BD80B500AFFEF7CEFC00BF80BD91
:1018BC0080B582B000AF03460A46FB711346BB717C
:1018CC00BB79012202FA03F31A46FB79114618463A
:1018DC00FEF771FE00BF0837BD4680BD80B582B0F3
:1018EC0000AF03460A46FB711346BB71BB7901225C
:1018FC0002FA03F31A46FB7911461846FEF770FEFE
:10190C0000BF0837BD4680BD80B582B000AF03462E
:10191C00FB710B46BB7113467B71BB79012202FA3A
:10192C0003F319467A79FB791846FEF71FFE00BFC0
:10193C000837BD4680BD80B582B000AF0346FB7151
:10194C000B46BB7113467B71BB79012202FA03F380
:10195C0019467A79FB791846FEF758FE00BF08370E
:10196C00BD4680BD80B582B000AF03460A46FB7110
:10197C001346BB71BB79012202FA03F31A46FB79B9
:10198C0011461846FEF7D6FE00BF0837BD4680BD8F
:10199C0080B582B000AF0346FB710B46BB7113469A
:1019AC007B71B9797A79FB791846FEF773FE034699
:1019BC0018460837BD4680BD80B500AFFEF7B2FFB4
:1019CC0000BF80BD70B4860746D0541E002A41D09B
:1019DC00CAB2034602E014F1FF343BD303F8012BE7
:1019EC009D07F8D1032C2ED9CDB245EA05250F2C35
:1019FC0045EA054519D9264603F11002103E0F2E73
:101A0C0042F8105C42F80C5C42F8085C42F8045C4A
:101A1C0002F11002F2D8A4F1100222F00F0204F02D
:101A2C000F041032032C13440DD91E462246043ADF
:101A3C00032A46F8045BFAD8221F22F00302043270
:101A4C00134404F003042CB1C9B21C4403F8011B69
:101A5C009C42FBD170BC704714460346C2E700BFE2
:101A6C004C454473207461736B00000049444C4531
:041A7C000000000066
:101A800000E1F505FFFFFFFFAAAAAAAAF81F0000C0
:04000003000000CC2D
:00000001FF
